; device = mm-control

:100000000C94F9000C94100F0C94E90E0C94C20E91
:100010000C949B0E0C9421010C9421010C94740EF1
:100020000C9421010C9421010C948A0F0C94F70F6D
:100030000C9421010C9421010C9421010C942101B8
:100040000C9421010C9421010C9421010C942101A8
:100050000C9421010C9421010C9421010C942C0E80
:100060000C9421010C945D0F0C94370F0C9421011A
:100070000C9421010C9421010C9421010C94210178
:100080000C94AD190C9421010C9421010C942101C4
:100090000C9421010C9421010C9421010C94210158
:1000A0000C9421010C9421010C9421016364696E6C
:1000B0006F70737578585B00070605040100080A25
:1000C0000B0C0D0973746172740A006F6B0A004B9C
:1000D000256400572564006F6B0A00522564006F89
:1000E0006B0A00452564006F6B0A00432564006FAE
:1000F0006B0A004625642025640025646F6B0A00A6
:1001000025646F6B0A0025646F6B0A006F6B0A0031
:100110005325640025646F6B0A0050256400582540
:1001200064006F6B0A00552564006F6B0A004D2553
:1001300064006F6B0A004C2564006F6B0A00542545
:1001400064006F6B0A006F6B0A00080B000202026A
:100150000100090400000102020000052400100152
:1001600005240101010424020605240600010705F7
:10017000810310004009040100020A000000070585
:100180000202400000070583024000000403090446
:1001900012010002EF020140992C0400000101024B
:1001A00003015072757361205265736561726368F3
:1001B0002028707275736133642E636F6D29004F50
:1001C000726967696E616C20507275736120693362
:1001D000204D4B33204D756C7469204D61746572F0
:1001E00069616C20322E3020757067726164650021
:1001F000EF0D11241FBECFEFDAE0DEBFCDBF11E05F
:10020000A0E0B1E0EEE3F2E402C005900D92AA3561
:10021000B107D9F722E0AAE5B1E001C01D92A03CE8
:10022000B207E1F710E0C9EFD0E004C02197FE016A
:100230000E94FE19C83FD107C9F70E941B120C94F7
:100240001D210C9400008230910538F0880F991F11
:10025000880F991F05970197F1F70895FC01809188
:10026000CA01882309F13FB7F89482E08093E9003E
:100270002091F200822F90E0222311F081E090E0A3
:10028000882339F0289844E64093C9014091F10051
:100290004083222339F02091F200211103C02BE684
:1002A0002093E8003FBF08958FEF9FEF08952FB789
:1002B000F89483E08093E9009091E800892F8072A0
:1002C00095FF04C09091F20080E4891B2FBF089530
:1002D000CF93DF9300D000D0CDB7DEB73FB7F8940F
:1002E0008091C5019091C601A091C701B091C8014C
:1002F00026B5A89B05C02F3F19F00196A11DB11D81
:100300003FBFBA2FA92F982F8827820F911DA11DBB
:10031000B11D9C01AD0162E0220F331F441F551F28
:100320006A95D1F7CA01B9010F900F900F900F9005
:10033000DF91CF9108958F929F92AF92BF92CF920B
:10034000DF92EF92FF92CF93DF9300D000D0CDB732
:10035000DEB74B015C010E9468016B017C010E94C9
:100360006801DC01CB018C199D09AE09BF09883EEB
:100370009340A105B10598F321E0821A9108A108E4
:10038000B10888EEC80E83E0D81EE11CF11C811470
:100390009104A104B10419F70F900F900F900F90E2
:1003A000DF91CF91FF90EF90DF90CF90BF90AF9013
:1003B0009F908F900895CF92DF92EF92FF920F93CC
:1003C0001F93CF93DF937C016A0110E000E00C15CE
:1003D0001D0581F0EB01D701ED91FC910190F081B9
:1003E000E02D6991C7010995892B21F00F5F1F4FFF
:1003F000BE01EDCFC801DF91CF911F910F91FF900A
:10040000EF90DF90CF9008950895FC01538D448DB7
:10041000252F30E0842F90E0821B930B541710F0AF
:10042000CF96089501970895FC01918D828D9817BC
:1004300061F0A28DAE0FBF2FB11D5D968C91928D94
:100440009F5F9F73928F90E008958FEF9FEF0895C5
:10045000FC01918D828D981731F0828DE80FF11D8E
:10046000858D90E008958FEF9FEF0895FC01818DB9
:10047000228D90E0805C9F4F821B91098F7399279A
:100480000895FC01A48DA80FB92FB11DA35ABF4F29
:100490002C91848D90E001968F739927848FA68983
:1004A000B7892C93A089B1898C9180648C93938DAA
:1004B000848D981306C00288F389E02D80818F7D9A
:1004C00080830895EF92FF920F931F93CF93DF9352
:1004D000EC01F62E81E0888F9B8D8C8D981316C0D1
:1004E000E889F989808185FF11C0EE89FF896083E1
:1004F000E889F98980818064808381E090E0DF91E0
:10050000CF911F910F91FF90EF9008950B8D10E008
:100510000F5F1F4F0F731127E02E8C8D8E110CC0B3
:100520000FB607FCFACFE889F989808185FFF5CFFE
:10053000CE010E944102F1CFEB8DEC0FFD2FF11D9A
:10054000E35AFF4FF0820B8FEA89FB89808180623A
:10055000D3CFCF93DF93EC01888D8823B9F0AA899C
:10056000BB89E889F9898C9185FD03C0808186FD6E
:100570000DC00FB607FCF7CF8C9185FFF2CF8081BD
:1005800085FFEDCFCE010E944102E9CFDF91CF91EF
:1005900008958DEC91E00E9436029C0181E0232BAE
:1005A00009F480E008958091B80181110DC082E0C6
:1005B0008093B40184E08093B5011092B70110924A
:1005C000B60181E08093B80184EB91E008954091F9
:1005D000AE015091AF012091AC013091AD014217B5
:1005E0005307B4F49091E8009570E1F39091E8001E
:1005F00092FD19C08093F1008091AE019091AF01FE
:1006000001968F739927892B19F48EEF8093E80058
:100610008091AE019091AF0101969093AF018093CC
:10062000AE0181E0089580E00895EF92FF920F936C
:100630001F93CF93DF93F82E192FE62E042F81E01E
:10064000860F880F0E94E70283E00E94E702CF2D09
:10065000D12FEC0EFD2EF11CCE15DF05B9F007FFF2
:1006600013C0FE0184910E94E702182F80E00E94CF
:10067000E702812321968111EFCFDF91CF911F9166
:100680000F91FF90EF9008958881EDCF81E0F5CF35
:10069000CF92DF92FF920F931F93CF93DF93F82EA9
:1006A0008A01EB016B01C40ED51ECC15DD0559F096
:1006B000F7FE12C0FE0184910E94E702219681118B
:1006C000F4CF0FEF1FEFC801DF91CF911F910F9172
:1006D000FF90DF90CF9008958881EECF0F931F9306
:1006E000CF93DF930F92CDB7DEB782E0898342E4E8
:1006F00050E06AE471E080E80E9448030E94D3025F
:10070000DC0112960D911C910115110589F0D8019B
:10071000ED91FC910280F381E02DBE016F5F7F4F70
:10072000C801099597FD04C0F80100851185ECCF3B
:1007300089810F90DF91CF911F910F9108956150A2
:1007400030F0FC018091F1008193CF01F8CF28981F
:1007500084E68093C90108958DEC91E00C94140215
:100760008F929F92AF92BF92CF92DF92EF92FF92C1
:100770000F931F93CF93DF937C018B01EA0180914C
:100780000F01882309F465C08091CA01882309F408
:1007900060C08091B20180FF05C08091E00082605E
:1007A0008093E0006E01B12C8AEFA82E93E0892E91
:1007B0002AE3922EC114D10419F4BB2009F442C0DB
:1007C0000E94570181110BC0AA94AA2009F441C0CC
:1007D00061E070E080E090E00E949B01EBCF8C151F
:1007E0001D0411F00CF08C2D9FB7F8948092E90055
:1007F0002091E80025FD02C09FBFDCCF282F30E00C
:10080000C21AD30A502F412F815040F0E52FF42F08
:1008100041914093F1005E2F4F2FF6CF020F131F2F
:10082000BB2021F09092E800B12CE6CF8091E80047
:1008300085FDE2CF9092E800BB24B394C114D104AB
:10084000D9F2F2CF5D9884E68093B3011C161D06A1
:100850003CF081E090E0F70193838283D0E0C0E038
:10086000CE01DF91CF911F910F91FF90EF90DF901C
:10087000CF90BF90AF909F908F900895CF93DF93CC
:100880000F92CDB7DEB7DC016983ED91FC91028058
:10089000F381E02D41E050E0BE016F5F7F4F09958D
:1008A0000F90DF91CF910895682F8AE692E00E9421
:1008B0003E0490E080E0089583E08093E900809119
:1008C000F200882319F08AE38093E80008950E94DB
:1008D000570190E00895CF93DF930F92CDB7DEB725
:1008E000FC018485958597FD08C02FEF3FEF358784
:1008F00024870F90DF91CF910895CE0101960E9439
:100900002E01019719F4898190E0F3CF8FEF9FEFCB
:10091000F0CF8AE692E00C946B040F931F93CF9371
:10092000DF930F92CDB7DEB78C01FC0184859585EE
:1009300097FF0BC0CE0101960E942E01019771F422
:10094000898190E0F80195878487F80184859585F1
:100950000F90DF91CF911F910F9108958FEF9FEF2F
:10096000F1CFFC018485958597FD0BC09FB7F89466
:1009700082E08093E9008091F2009FBF90E00196B1
:1009800008959FB7F89482E08093E9008091F20087
:100990009FBF90E008952091710130917201C901CB
:1009A000969587958270A9015695479556954795D6
:1009B0004470842B2170822B08959C012E98000096
:1009C00080E190E040E050E8B90164237523672B93
:1009D00081F02D9A479A0000479800005695479558
:1009E000019791F72E9A00003093720120937101C4
:1009F00008952D98EFCF482F50E09A01220F331F12
:100A00002470440F551F440F551F4071242B8170D3
:100A1000282B80917101909172018A7E822B0C9417
:100A2000DD049C0180917101909172018F7399276F
:100A3000522F4427842B952B36952795369527954D
:100A4000207C3327822B932B0C94DD04682F8DECB4
:100A500091E00E94620290E080E00895EAEBF0E00D
:100A6000E49190917B008E2F880F880F80729F7D7C
:100A7000892B80937B00E770E064E0937C00809199
:100A80007A00806480937A0090917A00892F807434
:100A900096FDFACF2091780090917900392F22337A
:100AA00031056CF0A901415551094331510548F018
:100AB000215A31092331310528F484E0089581E079
:100AC000089582E00895FC018081813039F0823000
:100AD00039F0811107C081E08083089582E0FCCF66
:100AE00083E0FACF10820895823011F0469A08957B
:100AF0002F9A0895823011F0469808952F980895FE
:100B0000882349F0823089F080E10895815021E006
:100B100030E021F4089522E030E088E02130310512
:100B2000A9F70895815021F4089520E130E088E08C
:100B30003695279521153105A9F708958EBD0DB479
:100B400007FEFDCF8EB50895CF92DF92EF92FF9210
:100B50000F931F93CF93DF93182F062FEA018CE595
:100B6000F82EFCBC1DBC812F0E947A05802F0E94AC
:100B70009E0580E00E949E0580E00E949E0580E028
:100B80000E949E0580E00E949E05812F0E947405B0
:100B9000FCBC1DBC812F0E947A0580E00E949E054E
:100BA000082F80E00E949E0590E0B0E0A0E0CC24F9
:100BB000D82EE92EFA2E80E00E949E05C82AFE2C2F
:100BC000ED2CDC2CCC2480E00E949E05C82AFE2C53
:100BD000ED2CDC2CCC2480E00E949E05C82A812FBD
:100BE0000E947405C882D982EA82FB82802FDF913D
:100BF000CF911F910F91FF90EF90DF90CF900895CC
:100C00001F93CF93DF9300D000D0CDB7DEB7AE01F6
:100C10004F5F5F4F61E080E00E94A40589819A8167
:100C2000AB81BC8187709927AA27BB2711E0892B4C
:100C30008A2B8B2B09F410E0AE014F5F5F4F61E010
:100C400082E00E94A40589819A81AB81BC81877072
:100C50009927AA27BB27892B8A2B8B2B09F01C5F8E
:100C6000812F0F900F900F900F90DF91CF911F91D8
:100C70000895EF92FF920F931F93CF93DF93C82FA6
:100C8000E62ED22F132F042FF52E8CE58CBD1DBC24
:100C90008C2F0E947A058E2D0E949E058F2D0E941A
:100CA0009E05802F0E949E05812F0E949E058D2FFC
:100CB0000E949E058C2FDF91CF911F910F91FF9085
:100CC000EF900C9474051F93CF93DF93C82F142FCC
:100CD000D22F262F30E050E040E0522F4427332718
:100CE00022272227332744275F70D032D0F4236D88
:100CF000436050616CEE0E9439062D2F30E0322F98
:100D00002227032E000C440B550B1F71212B4F6023
:100D100060E98C2F0E94390680E0DF91CF911F910E
:100D20000895236D416050616CEE0E9439062D2FAD
:100D3000269530E0322F222722273F71032E000C08
:100D4000440B550B1695E1CF1F93CF93DF93C82F1C
:100D5000D62F142F0E948005682F212F4D2F8C2F06
:100D60000E946306D82F81112FC020E030E0A90136
:100D700061E98C2F0E94390625E0CC2321F024E084
:100D8000C23009F421E0022E000C330B440B550B4A
:100D9000A901332722276DEE8C2F0E94390622EC01
:100DA00031E040E050E064E98C2F0E94390620E8F1
:100DB00031E340E050E060E88C2F0E9439068D2F2F
:100DC000DF91CF911F910895DFEFF9CF1F93CF935C
:100DD000DF93C82FD62F142F0E948005682F212F54
:100DE0004D2F8C2F0E946306D82F811133C020E035
:100DF00030E0A90161E98C2F0E94390620E030E043
:100E000044E050E06DEE8C2F0E94390620E030E087
:100E1000A90164E98C2F0E94390624E030E040E00B
:100E200050E060E88C2F0E94390622ED36E046E063
:100E300050E060EF8C2F0E94390628EC30E040E053
:100E400050E063E98C2F0E9439068D2FDF91CF91FE
:100E50001F910895DFEFF9CF40E060E0823019F490
:100E600080E00C94E60680E00C94A406CF93DF9318
:100E7000CDB7DEB72F970FB6F894DEBF0FBECDBF4C
:100E800020911A0130911B0140911C0129833A8362
:100E90004B8320911E0130911F01409120012C8332
:100EA0003D834E8320912201309123014091240102
:100EB0002F8338874987209126013091270140915F
:100EC00028012A873B874C8720912A0130912B01EA
:100ED00040912C012D873E874F876130A9F0623009
:100EE000D1F0611129C0282F30E0FE01E20FF31F7D
:100EF000458567812F960FB6F894DEBF0FBECDBF34
:100F0000DF91CF910C94A406282F30E0FE01E20F70
:100F1000F31F4181EECF282F30E0FE01E20FF31FD7
:100F2000448162852F960FB6F894DEBF0FBECDBF09
:100F3000DF91CF910C94E60680E02F960FB6F894DF
:100F4000DEBF0FBECDBFDF91CF9108951F93CF932A
:100F5000DF93182F3E9A579A279A469A5F9A2F9AAC
:100F6000249A569A2C985E98682F80E00E94360743
:100F7000C1E0D0E0811102C0D0E0C0E0D195C195C0
:100F8000D109612F82E00E94360781118CEF8C0F0E
:100F9000DF91CF911F9108958FEF93E00E9411058B
:100FA0006CE271E080E090E00E949B0190E080E0C4
:100FB0000E9411056CE271E080E090E00C949B01CE
:100FC000CF93DF93880F991FC1E0D0E002C0CC0F10
:100FD000DD1F8A95E2F7CE010E94110568E270E0FC
:100FE00080E090E00E949B0190E080E00E9411056B
:100FF00064E170E080E090E00E949B01CE010E94DD
:10100000110568E270E080E090E00E949B0190E0B2
:1010100080E00E9411056AE070E080E090E0DF91DE
:10102000CF910C949B010E94CB0481600C94FB0433
:101030000E94CB048E7F0C94FB04CF92DF92EF9240
:10104000FF920F931F93CF93DF9300D000D000D077
:10105000CDB7DEB78C010E94CB0417FF71C011958C
:10106000019511098B7F0E94FB04C12CD12C1E829B
:101070001D828BE0E82E87E2F82E0115110509F498
:1010800061C020E030E040E85FE3C982DA828E810F
:101090008B838D818C8369817A818B819C810E9475
:1010A000182187FF5E9A000020E030E040E85FE30F
:1010B000C982DA828E818B838D818C8369817A816A
:1010C0008B819C810E94182187FD03C05E9801508E
:1010D0001109000020E030E040E85FE3C982DA82D5
:1010E0008E818B838D818C8369817A818B819C81B8
:1010F0000E94182187FD0DC020E030E040E85FE34A
:1011000069817A818B819C810E94AB206B018E83E7
:101110009D8320E030E040E85FE3C982DA828E817F
:101120008B838D818C8369817A818B819C810E94E4
:10113000AC206B018E839D83C7010197F1F79DCF92
:10114000846091CF26960FB6F894DEBF0FBECDBF58
:10115000DF91CF911F910F91FF90EF90DF90CF9093
:1011600008952C9A00002C9800000895DF92EF92C9
:10117000FF920F931F93CF93DF93EC010E94CB0458
:10118000D7FF32C0D195C195D1098B7F0E94FB0456
:101190000E94180802E310E08BE9E82E8FE0F82E99
:1011A0009AE0D92E209709F05E9A0000209729F046
:1011B0005E982197C7010197F1F7000010161106FC
:1011C0004CF4D09EC001D19E900D11240E942301A9
:1011D00001501109209731F7DF91CF911F910F91A5
:1011E000FF90EF90DF9008958460D0CFAF92BF92D0
:1011F000CF92DF92EF92FF920F931F93CF93DF93E3
:1012000000D000D0CDB7DEB780E00E94A60786EF01
:101210009FEF0E94B60862E370E080E090E00E94D9
:101220009B01F12CE12CD12CC12C10E000E05BE8FB
:10123000A52EBB24B39481E090E00E94B608C501BE
:101240000197F1F719821A821B821C82AE014F5F4F
:101250005F4F6FE680E00E94A4050F5F1F4F88EE8E
:10126000E81683E0F80619F48FEFC81AD80A053695
:101270001105ACF081E090E09601220F331F02C00F
:10128000880F991F2A95E2F70E941105093C110564
:1012900034F090E080E00E94110510E000E08FEF54
:1012A000E81AF80A80EDE81687E0F80621F68EE7DE
:1012B0009FEF0E94B608809101010E94A60764EF8B
:1012C00071E080E090E00E949B0187E29FEF0E9426
:1012D0001D0881E080935B010F900F900F900F909D
:1012E000DF91CF911F910F91FF90EF90DF90CF9002
:1012F000BF90AF9008950E94F60885E591E00E94A6
:10130000110590E080E00E9411058091CB01909141
:10131000CC0124E030E0281B390B220F331F81E081
:1013200090E002C0880F991F2A95E2F70C941105EE
:1013300080917101909172018A620E94DD046AE0DD
:1013400070E080E090E00E949B018091710190919B
:101350007201857D0E94DD04809101010E94A60733
:101360000E94F6082091A9018DE99EEFAC01249F0F
:10137000C001259F900D11240E941D08809100013D
:10138000882351F080915B01882331F089ED90E052
:101390000E941D0810925B0108951F93CF93DF9365
:1013A0008EE293E00E943E208F5FC82FD0E0DC2FBA
:1013B000CC278FE293E00E943E20182F80E393E039
:1013C0000E943E201F3F11F4882369F0811748F4E2
:1013D00081E0810F8C0F9D2F911DDF91CF911F9187
:1013E00008958F5FF7CF81E0F5CFCF93DF938BE048
:1013F00090E00E943E20C82F8CE090E00E943E20AA
:10140000D82F8C2FCD1741F08DE090E00E943E2028
:10141000C81711F0D81303C0DF91CF9108958FEF53
:10142000FBCF0F931F93CF93DF930E94F509082FF3
:1014300010E0823019F0C0F4811118C0D0E0C0E093
:10144000CE010E960E943E2090E034E0959587955F
:101450003A95E1F708171907D9F0CE010197DF9106
:10146000CF911F910F9108958330F9F4CFE1D3E02C
:10147000CE010E960E943E2090E024E0959587953F
:101480002A95E1F70817190759F0CE010196E7CF21
:101490002196C03283E0D80799F68FE193E0DFCF41
:1014A000219730F790E080E0DACF8FEF9FEFD7CF32
:1014B000CF93C82F682F8BE090E00E944C206C2FB8
:1014C0008CE090E00E944C206C2F8DE090E00E9418
:1014D0004C200E94F509982F81E09C1380E0CF9169
:1014E0000895CF93DF93D0E0C0E06FEFCE010E946C
:1014F0004C202196CF3F83E0D807B9F76FEF8FEFED
:1015000093E0DF91CF910C944C200F931F93CF93D6
:10151000DF930E94CC070E94CC070E94CC070E9458
:10152000CD09BC016F3F7607A1F0EB0121960C2F8E
:10153000017010E0C801815D9C4F0E944C206D2F0E
:1015400061508EE293E0DF91CF911F910F910C9447
:101550004C20DF91CF911F910F9108950E940006BA
:10156000882399F00E94850A0E9498090E9400062B
:10157000882359F00E94850A0E9498090E9400065B
:10158000882319F00E94CC07FDCF08951092000126
:1015900080915B01811107C087E29FEF0E941D08C7
:1015A00081E080935B010C94AE0A81E0809300019E
:1015B00080915B01882331F089ED90E00E941D0845
:1015C00010925B010C94AE0AAF92BF92CF92DF9261
:1015D000EF92FF920F931F93CF930E94D50A0E9420
:1015E000180808E813E1C0E034E0C32ED12C42E033
:1015F000A42EB12C5BE4E52E56E4F52E0E94B10832
:10160000CF5FC333D0F08091CB019091CC01960194
:10161000281B390BC901880F991F950102C0220FA1
:10162000331F8A95E2F7C9010E941105C53628F0DB
:1016300090E080E00E941105C0E0C7010197F1F73A
:1016400001501109D9F60E94C60A8091CB019091F0
:10165000CC0124E030E0281B390B220F331F81E03E
:1016600090E002C0880F991F2A95E2F7CF911F9151
:101670000F91FF90EF90DF90CF90BF90AF900C94C0
:101680001105EF92FF920F931F93CF93DF93C82F13
:1016900080915A01811107C00E947B091092A90113
:1016A00081E080935A01D3E00C2F10E083E6E82E0E
:1016B000FF24F3942091A90130E0201B310B2E9DD3
:1016C000C0012F9D900D3E9D900D11240E941D087C
:1016D000C093A9010E940006882399F1D15019F402
:1016E0000E94CC07FDCF0E94850A1092A90180912B
:1016F0007101909172018A620E94DD046AE070E0DB
:1017000080E090E00E949B018091710190917201B4
:10171000857D0E94DD04809101010E94A6070E9440
:101720007B0980910001882329F280915B01882345
:1017300009F4C0CF89ED90E00E941D0810925B0172
:10174000B9CFDF91CF911F910F91FF90EF90089546
:101750000F931F93CF93DF93182F092FC4E0D0E08E
:101760008091CB019091CC019E01281B390B220F57
:10177000331F82E090E002C0880F991F2A95E2F79C
:101780000E9411051093CB010093CC01812F0E9480
:10179000410B90E080E00E9411058091CB01909177
:1017A000CC01C81BD90BCC0FDD1F81E090E002C03B
:1017B000880F991FCA95E2F7DF91CF911F910F9182
:1017C0000C941105CF93DF93C091CB01D091CC0144
:1017D00024E030E02C1B3D0B220F331F81E090E012
:1017E00002C0880F991F2A95E2F70E9411050E94F6
:1017F0002E05857091F064EF71E080E090E00E942A
:101800009B010E942E05813021F1843049F164EF63
:1018100071E080E090E00E949B018091CB0190916B
:10182000CC01059719F582E090E00E94110562E372
:1018300070E080E090E00E949B0181E090E00E94D7
:10184000110562E370E080E090E0DF91CF910C94AD
:101850009B01CE0101962597D4F60E94A80BD7CF05
:101860001C161D06A4F6CE010197F7CFDF91CF918C
:101870000895CF93DF938091CB019091CC01853077
:10188000D8F49927880F991F01960E944620EC01F1
:10189000019661F490E080E00E943E20893C30F4A3
:1018A0009AE0899FE0011124C954D84FCE018D5B85
:1018B0009640843E984010F0C4ECD9E0CE01DF9110
:1018C000CF910895EF92FF920F931F93CF93DF93E1
:1018D0000E94390C8C017C0184E1E81A85E0F80A49
:1018E0000E941308C0EDD7E0101611068CF50E9477
:1018F000B10801501109083785E018075CF4C037BA
:1019000087E1D8075CF42396C43C89E0D80734F417
:10191000229604C0083087E01807B4F30E151F059F
:101920009CF4093883E118077CF0C73282E0D807BD
:101930003CF0219780910101813031F4219704C05E
:10194000CB3481E0D807B4F7CE010E942301CCCF7D
:10195000DF91CF911F910F91FF90EF9008956091CB
:10196000010180E00E9436070E94D50A0E94620CA5
:101970000E940006882321F00E94850A0E9498098F
:10198000109282010E94C60A809101010E942C07D8
:101990001092A50108954F925F926F927F928F925D
:1019A0009F92AF92BF92CF92DF92EF92FF920F93EE
:1019B0001F93CF93DF9300D000D00F92CDB7DEB747
:1019C000B82E8091CB0193E0E92E8F70D82E0E9423
:1019D000F509182F89830E94110A9C01123021F009
:1019E00008F076C0111178C089010F5F1F4F0032D7
:1019F00023E0120730F0CE0101960E9463050FE14B
:101A000013E089810E94580A8823F1F0698140E13E
:101A1000649FB0011124FD2CF60E025F1F4F6F2D45
:101A2000C8010E944C20C8010E943E20F81661F0B7
:101A3000CE0101960E94630589810E94580A88237D
:101A400019F0EA94E110C3CF0E94D50A6091010118
:101A500080E00E9436070E94180881E0809382018E
:101A60000E94390C6C0183E0A82E04E911E14601C3
:101A700050E2851A53E0950A0E941808F12CE12CD7
:101A800084E991E1A0E0B0E0CE14DF0409F495C050
:101A90000E9423010E9468012B013C0180EAE816A4
:101AA0008FE0F806A0F509322AE0120724F104506D
:101AB0001109025011090150110980910101813071
:101AC00031F580918101882311F1015011091FC066
:101AD000133011F019820CC0890101501109003234
:101AE00033E0130708F48DCFCE0101960E94630501
:101AF00010E000E086CF053135E01307D4F60B384F
:101B000042E01407C4F60F3551E01507B4F68E1401
:101B10009F0430F408328AE0180714F4065F1F4F60
:101B200081E691E00E94041A8134910549F581E033
:101B300080938101809101010E942C070E94C60AB6
:101B4000809101010E942C07B1100E94C60A81E019
:101B50008093A5010F900F900F900F900F90DF9141
:101B6000CF911F910F91FF90EF90DF90CF90BF909A
:101B7000AF909F908F907F906F905F904F9008955F
:101B80000E94B1080E9468016A837B838C839D83D5
:101B9000C801012E000CAA0BBB0B840D951DA61DC0
:101BA000B71D2A813B814C815D81821B930BA40B65
:101BB000B50B3FEFE31AF30A67CF0E9400068823B4
:101BC00009F4BECFAA94A11003C00E94CC07FDCF98
:101BD0000E94850A0E9498090E94620C4DCFEDEC8C
:101BE000F1E01382128288EE93E0A0E0B0E08483FB
:101BF0009583A683B78329E331E0318320832DECDD
:101C000030E0358724872CEC30E03787268728ECB6
:101C100030E0318B208B29EC30E0338B228B2AECA7
:101C200030E0358B248B2EEC30E0378B268B118EF9
:101C3000128E138E148EEAE6F2E0138212828483EF
:101C40009583A683B7838BE491E0918380838FEFA4
:101C50009FEF9587848708951F921FB61F921124C6
:101C60002F933F938F939F93AF93BF938091C10125
:101C70009091C201A091C301B091C4013091C00103
:101C800023E0230F2D3750F50196A11DB11D2093A0
:101C9000C0018093C1019093C201A093C301B0938E
:101CA000C4018091C5019091C601A091C701B09176
:101CB000C8010196A11DB11D8093C5019093C60175
:101CC000A093C701B093C801BF91AF919F918F912D
:101CD0003F912F911F901FBE1F90189526E8230F4C
:101CE0000296A11DB11DD3CF1F920F920FB60F9276
:101CF00011242F933F934F935F936F937F938F9311
:101D00009F93AF93BF93EF93FF93E0911801F091EE
:101D100019010995FF91EF91BF91AF919F918F911B
:101D20007F916F915F914F913F912F910F900FBED7
:101D30000F901F9018951F920F920FB60F921124BB
:101D40002F933F934F935F936F937F938F939F93C3
:101D5000AF93BF93EF93FF93E0911601F0911701BA
:101D60000995FF91EF91BF91AF919F918F917F91D5
:101D70006F915F914F913F912F910F900FBE0F90F8
:101D80001F9018951F920F920FB60F9211242F9348
:101D90003F934F935F936F937F938F939F93AF93F3
:101DA000BF93EF93FF93E0911401F0911501099512
:101DB000FF91EF91BF91AF919F918F917F916F9123
:101DC0005F914F913F912F910F900FBE0F901F90F9
:101DD00018951F920F920FB60F9211242F933F93D5
:101DE0004F935F936F937F938F939F93AF93BF9323
:101DF000EF93FF93E0911201F09113010995FF9188
:101E0000EF91BF91AF919F918F917F916F915F9172
:101E10004F913F912F910F900FBE0F901F901895EB
:101E20001F920F920FB60F9211242F933F934F934F
:101E30005F936F937F938F939F93AF93BF93EF9332
:101E4000FF93E0911001F09111010995FF91EF913D
:101E5000BF91AF919F918F917F916F915F914F91C2
:101E60003F912F910F900FBE0F901F9018951F92CA
:101E70000F920FB60F9211242F933F934F935F93BE
:101E80006F937F938F939F93AF93BF93EF93FF9342
:101E90008DEC91E00E944102FF91EF91BF91AF91D3
:101EA0009F918F917F916F915F914F913F912F9172
:101EB0000F900FBE0F901F9018952F932FB72F9351
:101EC0008F939F93EF93FF93E091DD01F091DE01FB
:101ED0008081E091E301F091E40182FD19C09081DD
:101EE0008091E6018F5F8F732091E701821741F0A7
:101EF000E091E601F0E0E353FE4F958F8093E60119
:101F0000FF91EF919F918F912F912FBF2F91189556
:101F10008081F6CF1F921FB61F9211248F939F933B
:101F20008091E1009091E100937F9093E10083FF25
:101F30000FC01092E90091E09093EB001092EC003A
:101F400092E39093ED001092CA0198E09093F00014
:101F500082FF22C093E09093E9009091F2009923D0
:101F600019F09AE39093E8009091B301992341F01E
:101F70009091B30191509093B301911101C05D9A7A
:101F80009091C901992341F09091C901915090938A
:101F9000C901911101C0289A84FF17C08091E20005
:101FA0008E7E81608093E2008091E1008F7E80933D
:101FB000E1008091B2018E7E80618093B2019F9199
:101FC0008F911F901FBE1F90189580FFF8CF8091B2
:101FD000E2008E7E80618093E2008091E1008E7E3F
:101FE0008093E1008091B2018E7E8160E6CF1F92E6
:101FF0000F920FB60F921124CF92DF92EF92FF92C1
:102000000F931F932F933F934F935F936F937F9300
:102010008F939F93AF93BF93EF93FF93CF93DF93F0
:10202000CDB7DEB76C97DEBFCDBF1092E9008091CF
:10203000E80083FF21C068E0CE0145960E949F031F
:1020400082EF8093E8008D8987FF35C09091E8008A
:1020500090FFFCCF982F907609F035C19E899111A1
:1020600031C0803861F58091B1018093F100109208
:10207000F1008EEF8093E8006C960FB6F894DEBF07
:102080000FBECDBFDF91CF91FF91EF91BF91AF9187
:102090009F918F917F916F915F914F913F912F9180
:1020A0001F910F91FF90EF90DF90CF900F900FBE98
:1020B0000F901F9018959EEF9093E800CBCF109251
:1020C000F100D5CF2F89388D913059F48111D1CFBE
:1020D0002130310571F68091B1018D7F8093B1017E
:1020E000C8CF933049F48111C4CF2130310509F6AE
:1020F0008091B1018260F2CF953049F48091E8007F
:1021000080FFFCCF8F8980688093E300B2CF963048
:1021100009F0AAC0F88C0B8D1C8D22E01092E9000A
:102120001092AF011092AE01F2122EC01092AD01CA
:102130001092AC010E946E031F8299E09983FA828B
:1021400091E09E8390EA98879AEF99872091AE015B
:102150003091AF01275F3F4F3C832B838D831092DB
:10216000E9001092AF011092AE011093AD010093FF
:10217000AC0149E050E0BE016F5F7F4F80E00E94FC
:1021800048030E946E0375CF1093AD010093AC011C
:102190000E94D302DC0112960D911C9101151105CC
:1021A00009F43CC1D801ED91FC910480F581E02D4A
:1021B000BE016B5E7F4FC8010995009709F029C1E8
:1021C000F80100851185EACFF3E0FF120EC08F8978
:1021D000882309F440C0823061F440E860E38FEB6B
:1021E00091E00E941503811144CF81E28093EB00BE
:1021F00043CF813029F440E86CE182EA91E0F1CFED
:10220000833099F70E94D302DC011296ED90FC9086
:102210008E010F5F1F4F6801E114F10479F0D701BF
:10222000ED91FC910680F781E02DB801C701099579
:10223000080F111DF701E084F184EECFD8011C9244
:10224000F60101900020E9F73197BF016C197D0973
:1022500040E0C601C6CF6CE871E0FB01449150E05C
:1022600080E80E94480305CF973009F4BECF98302C
:1022700021F481E08093F100FCCE993009F0F9CE91
:10228000837009F0B2CFEFE2F1E081E031E096E354
:102290002191211109C08EE78093EA001092EA0093
:1022A0008F898093CA01E5CE8093E9003093EB00DB
:1022B000DF0111972C912093EC009093ED008F5F3C
:1022C000873031F7E8CF8B8D9C8D1092E90010920A
:1022D000AF011092AE019093AD018093AC01898D56
:1022E00081117DC08E899D89913A49F4813209F02E
:1022F0007CCF47E050E068E071E080E0B2CF9132FF
:1023000009F073CF833269F48F89988DB0E0A0E033
:102310008093040190930501A0930601B0930701F7
:10232000A8CE803209F080C08091E80082FFFCCF07
:1023300067E088E091E00E949F038BEF8093E800C4
:102340008091B001EEEFFAE0811102C0E0E0F8E028
:102350008091080190910901A0910A01B0910B01AF
:10236000803B9440A105B105B9F480910F0180FD37
:1023700013C0EE3F8AE0F80721F587E797E79183DE
:10238000808388E19BE00FB6F894A8958093600065
:102390000FBE909360006DCE0FB6F894A895809113
:1023A0006000886180936000109260000FBEA89565
:1023B000EE3FAAE0FA0761F41092FF0A1092FE0ABB
:1023C00058CE808191819093FF0A8093FE0AD5CFE9
:1023D0008091FE0A9091FF0A918380834ACE0E94E9
:1023E000D302FC01028113810115110509F4FDCE10
:1023F000D801ED91FC910190F081E02DBE016B5E62
:102400007F4FC8010995811134CEF80100851185EF
:10241000EBCF181619060CF42CCEE7CEF1E0FF1224
:10242000D3CE60E971E019CF823209F022CE8F89D4
:1024300080930F0185CFCDB7DEB728970FB6F894FC
:10244000DEBF0FBECDBF789484B5826084BD84B5F5
:10245000816084BD85B5826085BD85B5816085BD9F
:1024600080916E00816080936E0010928100809157
:1024700081008260809381008091810081608093DF
:102480008100809180008160809380008091910024
:10249000826080939100809191008160809391008F
:1024A000809190008160809390008091C100846051
:1024B0008093C1008091C10082608093C1008091AF
:1024C000C10081608093C1008091C30081608093CE
:1024D000C3008091C00082608093C0008091C200E0
:1024E00081608093C20080917A00846080937A003A
:1024F00080917A00826080937A0080917A00816076
:1025000080937A0080917A00806880937A0010929C
:10251000CA011092B1011092B2018091D70081607E
:102520008093D70080EA8093D80089B5806189BD07
:1025300089B5826089BD09B400FEFDCF61E070E01D
:1025400080E090E00E949B018091D8008F7C8061A8
:102550008093D8008091E000807F8093E00080919C
:10256000E1008E7E8093E1008DE08093E200559A39
:10257000209AEEEFFFE7859194918B3F9C4D19F4E3
:1025800081E08093B0018FEF93E00E943E208F3F67
:1025900011F00E94710A3F9A269A259A47982E9820
:1025A0002D98109272011092710190E080E00E94CB
:1025B000DD0480917101909172010E94DD0490E030
:1025C00080E00E94E0078FEF9FEF90937702809367
:1025D000760203E711E084E594E090937C01809318
:1025E0007B0189E894E090937E0180937D0193E0E4
:1025F000909376011092800110927F01E091DD01AD
:10260000F091DE0182E08083E091D901F091DA015E
:102610001082E091DB01F091DC0180E18083109277
:10262000E501E091E101F091E2018EE08083E0912B
:10263000DF01F091E001808180618083E091DF0122
:10264000F091E001808188608083E091DF01F0916A
:10265000E001808180688083E091DF01F091E001FA
:1026600080818F7D8083B1E6EB2EB1E0FB2E26E2E8
:1026700035E030936A01209369012CEA33E030930E
:102680006C0120936B019093640110926E01109283
:102690006D0181E090E00E94E0071093BB0200937F
:1026A000BA021093BD020093BC0284EC90E09F93A9
:1026B0008F93FF92EF920E94421A84B1817F84B976
:1026C00084B1866084B982E090E00E94E00783E0F4
:1026D00090E00E94E0071092700110926F018091CB
:1026E0007A00876080937A0080917C008064809378
:1026F0007C0080917A00806880937A0080E28093E9
:102700007E0010927D0084E090E00E94E0078091BE
:10271000710190917201857D0E94DD0490E080E05E
:102720000E9411050E942E050F900F900F900F90A0
:10273000823031F481E090E09093AB018093AA0164
:1027400080E00E94A6070E9400060E94110A8032C3
:1027500043E0940720F50E960E943E20182F082F84
:102760000F700530E0F40E94F5098430C0F4212F89
:1027700030E0A4E035952795AA95E1F78217130676
:1027800071F40E94F6088DE99EEFFC010E9FC001D6
:102790000F9F900D11240E941D080093A9018E0126
:1027A0000D5F1F4FFBEB2F2EF2E13F2EE3E8EE2EE5
:1027B000E1E0FE2E8091A3019091A40180970CF09E
:1027C000ABC081E691E00E94041A9C0197FD16C0FF
:1027D0008D30910511F00A9711F430E020E08091DE
:1027E000A3019091A401AC014F5F5F4F5093A401EE
:1027F0004093A3018D579E4FFC0120831C821B82B6
:102800001A8219828091A3019091A40118161906C9
:102810000CF0CCC0232B09F0C9C01092A401109277
:10282000A3011F930F932EE331E03F932F93FF9269
:10283000EF920E945F1A0F900F900F900F900F90E1
:102840000F90181619060CF06EC0CB80DC8055E096
:10285000C516D10408F0AAC082E090E09093AB01C5
:102860008093AA014091CB015091CC0124E030E04B
:10287000241B350B220F331F02C0880F991F2A9586
:10288000E2F70E941105D092CC01C092CB01809159
:10289000A50181110E94AF0C8091CB010E94410BD8
:1028A0008091CB019091CC0124E030E0281B390BC2
:1028B000220F331F82E090E002C0880F991F2A95F3
:1028C000E2F70E9411058091A501811103C081E00A
:1028D0000E94CB0C90E080E00E9411058091CB011A
:1028E0009091CC0124E030E0281B390B220F331FDC
:1028F00081E090E002C0880F991F2A95E2F70E94BC
:1029000011058AE391E09F938F9381E691E09F9375
:102910008F930E94421AFBC11092A4011092A3014E
:102920002FEF3FEF6BCF1F930F9386E391E09F93C1
:102930008F93FF92EF920E945F1A0F900F900F906B
:102940000F900F900F9018161906BCF48B819C8184
:102950008530910558F52091A501222349F083E0A7
:1029600090E09093AB018093AA0182E391E0CBCFFA
:102970000E94A80B0E94E40AF8CF1F930F932EE247
:1029800031E03F932F93FF92EF920E945F1A0F90D6
:102990000F900F900F900F900F901816190694F546
:1029A0008B819C81009711F1019751F1C090AA0190
:1029B000D090AB0194E0C916D10409F47CC40CF0AA
:1029C00025C2C114D10409F43BC4CA94CD2809F42A
:1029D00070C280E090E0892B09F4ECCE0E94C9021D
:1029E000882309F4E7CE0E940000E0CE81E08093C6
:1029F0000101809101010E94A6078AE291E083CF44
:102A000082E0F5CF1F930F9386E291E09F938F931F
:102A1000FF92EF920E945F1A0F900F900F900F900D
:102A20000F900F90181619068CF40E94AF0C82E2DA
:102A300091E09F938F9381E691E09F938F930E9403
:102A4000421A1092AB011092AA0161C11F930F9319
:102A50002EE131E03F932F93FF92EF920E945F1A95
:102A60000F900F900F900F900F900F90181619065F
:102A700084F48B819C81892B09F098CF88E198E0C0
:102A80000FB6F894A895809360000FBE90936000F5
:102A90008DCF1F930F938AE191E09F938F93FF92C5
:102AA000EF920E945F1A0F900F900F900F900F906F
:102AB0000F9018161906D4F48B819C81892B09F08C
:102AC00075CF809182011F928F9384E191E09F9353
:102AD0008F9381E691E09F938F930E94421A0F900B
:102AE0000F900F900F900F900F9060CF1F930F9348
:102AF00080E191E09F938F93FF92EF920E945F1A83
:102B00000F900F900F900F900F900F9018161906BE
:102B100024F58B819C81009719F48CE091E0F3CE31
:102B20008130910531F41F928AE68F9386E091E01F
:102B3000CECF8230910539F481E08F9387E78F9370
:102B400080E091E0C4CF039709F030CF0E94CD0917
:102B50009F938F938AEF90E0BACF81E090E08C0F43
:102B60009D1F9F938F931F930F9383EF90E09F93ED
:102B70008F93FF92EF920E945F1A0FB6F894DEBF18
:102B80000FBECDBF181619066CF48B819C8105977A
:102B900008F00CCF89819A81039708F007CF8FEE58
:102BA00090E0B1CE1F930F938BEE90E09F938F93A5
:102BB000FF92EF920E945F1A0F900F900F900F906C
:102BC0000F900F90181619060CF04AC08B819C814B
:102BD000892B09F0EBCE0E94D50A0E94180860915B
:102BE000010180E00E94360742E0C42E43E0D42E6B
:102BF00088E29AE0A0E0B0E00E9423010E94680110
:102C00004B015C0181E691E00E94041A8134910538
:102C100061F481E080938101809101010E942C0781
:102C20000E94C60A87EE90E06ECE0E94B1080E9414
:102C300068016D837E838F839887D501C401885D89
:102C4000954FAF4FBF4F2D813E814F815885821BDD
:102C5000930BA40BB50B31E0C31AD10869F6DCCF96
:102C60001F930F9383EE90E09F938F93FF92EF92C9
:102C70000E945F1A0F900F900F900F900F900F907F
:102C8000181619060CF048C0CB80DC8045E0C4164D
:102C9000D10408F08BCED092CC01C092CB018091B0
:102CA000A50181110E94AF0C6091010180E00E949A
:102CB00036078C2D0E94410B0E94D50A0E941808ED
:102CC00022EEC22E24E0D22E3BE6A32E37E1B32E15
:102CD0000E94B108C5010197F1F751E0C51AD1086A
:102CE000B9F70E94C60A809101010E942C078FED5E
:102CF00090E09F938F9381E691E09F938F930E9442
:102D0000421A82E090E09093AB018093AA010F9069
:102D10000F900F900F904ACE1F930F938BED90E082
:102D20009F938F93FF92EF920E945F1A0F900F90E4
:102D30000F900F900F900F901816190664F58B8165
:102D40009C81892B09F032CE6091010180E00E94C4
:102D500036070E94D50A0E94130882EEC82E84E02E
:102D6000D82E9BE6A92E97E1B92E0E94B108C50185
:102D70000197F1F781E0C81AD108B9F70E94C60A95
:102D80008091CB010E94410B809101010E942C0790
:102D900087ED90E04ECE1F930F9383ED90E09F93CD
:102DA0008F93FF92EF920E945F1A0F900F900F90F7
:102DB0000F900F900F901816190664F48B819C8168
:102DC000892B09F0F3CD84E090E09093AB018093E0
:102DD000AA01ECCD1F930F938FEC90E09F938F93FC
:102DE000FF92EF920E945F1A0F900F900F900F903A
:102DF0000F900F90181619060CF0D8CD8B819C817E
:102E0000059708F0D3CD8BEC90E07DCD25E0C21680
:102E1000D10409F0DECD90E080E00E94110560E26F
:102E200073E080E090E00E949B018091CB01909143
:102E3000CC0124E0C22ED12CC81AD90ACC0CDD1C3E
:102E400081E090E00C2C02C0880F991F0A94E2F7F1
:102E50000E94110564E670E080E090E00E949B0112
:102E600082E090E002C0880F991FCA94E2F70E94A6
:102E7000110564E670E080E090E00E949B0160E252
:102E800073E080E090E00E949B010E942E05D82E06
:102E9000882309F49ECD0E942E058111FCCF31E0DC
:102EA000D31609F453C242E0D41293CD84E090E0EB
:102EB00035C280910301882301F190E080E00E94F7
:102EC000110568EC70E080E090E00E949B018AEAC6
:102ED00092E00E94110560EB74E080E090E00E94B7
:102EE0009B0190E080E00E94110568E572E080E0BF
:102EF00090E00E949B01109203018090A80188201D
:102F000009F42EC10E94E20B0E942E05823009F0C6
:102F100060CDC090CB01D090CC0124E030E02C19E2
:102F20003D09220F331F82E090E002C0880F991FF5
:102F30002A95E2F70E94110564EF71E080E090E0CD
:102F40000E949B010E942E05823009F042CD8C2DFB
:102F50000E94410BA090CB01B090CC0135E0A316AC
:102F6000B1040CF0BFC08091A501811132CDAD82BA
:102F70000E94390C6C0180E00E94CB0C4EE161E0B4
:102F800080E00E94A4068FB7F8944090C101509051
:102F9000C2016090C3017090C4018FBF912C0E9448
:102FA0002E05813081F0843009F46EC08FB7F8941B
:102FB0004090C1015090C2016090C3017090C40163
:102FC0008FBF912C1FC0911009C0C601875C96402D
:102FD000843E984008F448C0982C14C02FB7F89449
:102FE0008091C1019091C201A091C301B091C4012F
:102FF0002FBF84199509A609B709893E9340A105F9
:10300000B10518F780E091E00E9411056AE070E0D8
:1030100080E090E00E949B0180E092E00E94110518
:103020006AE070E080E090E00E949B0188E090E020
:103030000E94110562E370E080E090E00E949B0135
:103040000E942E05823009F0AACF0E94AF0C3D816C
:10305000353008F0BECCC5019927880F991FB601FD
:1030600001960E945E20B5CC0E941308AAE09A2E19
:10307000C1010197F1F70E94B1089A949110F8CF1D
:103080008AE0C81AD108A8CF911017C0C601835B87
:103090009640843E984008F09FCF0E941808FAE0BE
:1030A0009F2EC1010197F1F70E94B1089A949110E7
:1030B000F8CF2AE0C20ED11C8FCF2FB7F8948091A1
:1030C000C1019091C201A091C301B091C4012FBF71
:1030D00084199509A609B709893E9340A105B10550
:1030E000A8F690CF90E080E00E94A80B90E080E0EE
:1030F0000E94110560E971E080E090E00E949B0170
:103100008AEA92E00E94110560E971E080E090E0B7
:103110000E949B0190E080E00E94110560E971E04F
:1031200080E090E00E949B0190E080E00E94110509
:103130008091CB019091CC0124E030E0281B390B29
:10314000220F331F81E090E002C0880F991F2A955B
:10315000E2F70E9411051092AB011092AA0139CC3E
:1031600080E091E00E94110561E070E080E090E075
:103170000E949B0180E092E00E94110561E070E0F6
:1031800080E090E00E949B01C090A601D090A70132
:103190009601220F331F82E090E002C0880F991F32
:1031A0002A95E2F70E94110561E070E080E090E06E
:1031B0000E949B010E942E058230B9F08430B9F143
:1031C000813009F006CC1C141D040CF002CC41E047
:1031D000C41AD108D092A701C092A60160E273E0A0
:1031E00080E090E00E949B01F4CB53E0C516D1042F
:1031F000D9F084F491E0C916D10491F0E2E0CE1642
:10320000D10409F0E6CB809102018111E2CB0E944A
:10321000710A6CCFF4E0CF16D10409F467CFD9CB93
:1032200081E08093A801D5CB10920201D2CB24E09B
:10323000C216D1040CF0CDCB3FEFC31AD30ACACFCC
:103240000E94E20B0E942E05823009F0C2CBC09092
:10325000CB01D090CC0145E0C416D1040CF0B9CB21
:1032600024E030E02C193D09220F331F82E090E06A
:1032700002C0880F991F2A95E2F70E94110564EF9A
:1032800071E080E090E00E949B010E942E05823058
:1032900009F09FCB0E94F6088DE99EEFFC01CE9EBF
:1032A000C001CF9E900D11240E941D08C092A9015B
:1032B0000E94E40A8ECB90E080E00E94110560E25B
:1032C00073E080E090E00E949B018091CB0190919F
:1032D000CC01C81AD90ACC0CDD1C82E090E002C0F7
:1032E000880F991FCA94E2F70E94110560E273E00B
:1032F00080E090E00E949B010E942E05D82E88233A
:1033000009F467CB0E942E058111FCCFF1E0DF1696
:1033100051F022E085E090E0D2125BCB9093AB01BC
:103320008093AA0156CB1092AB011092AA0186E4B9
:1033300091E09F938F9381E691E09F938F930E94FA
:10334000421A0F900F900F900F9043CB1092AB0149
:103350001092AA0182E491E0ECCF1F921FB61F9257
:1033600011248F939F93AF93BF9380915D019091B0
:103370005E01A0915F01B0916001892B8A2B8B2B9C
:1033800079F190915C018091000089278093000081
:1033900080915D0190915E01A0915F01B09160010B
:1033A000181619061A061B069CF480915D0190916F
:1033B0005E01A0915F01B09160010197A109B1097F
:1033C00080935D0190935E01A0935F01B0936001D3
:1033D000BF91AF919F918F911F901FBE1F90189525
:1033E000809171008D7F8093710080915C0190913C
:1033F00000008095892380930000EACFEE0FFF1F25
:103400000590F491E02D0994CF93DF93EC018B812B
:1034100080FF33C086FF0CC08F7B8B838E819F81A2
:1034200001969F838E838A8190E0DF91CF910895EA
:1034300082FF15C0E881F9819081292F092E000CA7
:10344000330B80629923C1F03196F983E8838E8132
:103450009F8101969F838E83C9019927E6CFEA85D4
:10346000FB85CE0109959C0197FFF1CF8B812F3F02
:103470003F4F31F090E2892B8B838FEF9FEFD5CFB9
:1034800090E1F9CFB0E0A0E0E8E4FAE10C9482200A
:103490000F811885F801838188608383AE01455FC1
:1034A0005F4F69857A85C8010E94781A9C01F801EE
:1034B0009381977F9383C901E4E00C949E20AEE052
:1034C000B0E0E5E6FAE10C9484208DE08C838B89F2
:1034D0009C899A838983AE01495E5F4F6D897E899D
:1034E000CE0101960E94D71D2E96E2E00C94A020FA
:1034F000AFE0B0E0EEE7FAE10C9474207C013B0110
:103500008A01DC0117961C921E92169713968C91D5
:1035100081FFC3C19AE0292EFE0131964F01D701E8
:1035200013969C91F30193FD859193FF81913F0147
:10353000882309F448C1853239F493FD859193FFBE
:1035400081913F01853229F4B70190E00E94201F4C
:10355000E6CFB12C412C512CBFE1B51538F08B32A0
:1035600009F188F4803201F1833221F157FC3AC02D
:1035700020ED280F2A3040F556FE1FC0B29C200DCA
:103580001124B22E06C08D3291F0803379F7689401
:1035900050F8F30193FD859193FF81913F018111D3
:1035A000DBCF20C0689451F8689452F8F2CF689449
:1035B00053F8EFCF689454F8ECCF429C200D1124BF
:1035C000422E689455F8E5CF8E3229F456FCFBC0A4
:1035D000689456F8DECF8C3619F4689457F8D9CF32
:1035E0008836B9F2982F9F7D95549330C0F083367A
:1035F000A1F18337C1F1833509F05BC0D801CD90CB
:10360000DD908D016B2D70E056FC02C06FEF7FEFF7
:10361000C6010E940A1F5C01689457F80AC00C5F3B
:103620001F4FEFE3E983AA24A394B12C6401E8942B
:1036300057F853FC04C04A141B0409F018F5342C45
:10364000A114B10431F5332009F469CFB70180E248
:1036500090E00E94201F3A94F6CFD8018C91898384
:103660000E5F1F4FE0CFF801C190D1908F016B2DFD
:1036700070E056FC02C06FEF7FEFC6010E94151F7D
:103680005C01D5CFB70180E290E00E94201F4A94F0
:10369000D2CFF60157FC859157FE81916F01B7019A
:1036A00090E00E94201F31103A94B1E0AB1AB108AB
:1036B000C7CF843619F0893609F074C0F80157FE77
:1036C0006AC061917191819191918F01E52DEF76A1
:1036D000DE2E97FF09C090958095709561957F4F7C
:1036E0008F4F9F4F6894D7F82AE030E0A4010E94E2
:1036F000681FC82EC818AC2C5D2CD6FE0CC0E894F0
:1037000050F8CB1440F4D4FE05C0D2FC03C05D2DAC
:103710005E7E552EAB2C54FE98C0FE01EC0DF11DC3
:103720008081803309F08AC0652D697E562E752D03
:103730007870372E53FC98C050FE92C0BC2CA41455
:1037400018F44C0CB42CBA1854FE94C0B70180E3A2
:1037500090E00E94201F52FE09C088E790E051FED1
:1037600002C088E590E0B7010E94201FCB1408F446
:103770008DC0CA94D12C8FEFC81AD80AC80CD91C96
:10378000D6018E916D01B70190E00E94201F8C142C
:103790009D04B1F758CF61917191072E000C880BF1
:1037A000990B93CFD52CE894D4F82AE030E08537F4
:1037B00039F1F52DF97FDF2E8037A9F058F48835DF
:1037C000A9F08F36D9F0F701868197812F96E2E133
:1037D0000C9490208837B9F7D4FE02C06894D2F8D0
:1037E00020E130E00DC06894D4F8F6CF54FE03C059
:1037F0002F2F2660D22E20E132E002C028E030E0F8
:10380000F801D7FE15C041915191619171914C879A
:103810005D876E877F878F01A4016C857D858E858E
:103820009F850E94681FC82EC818E894D7F863CFF8
:1038300081919191AC0170E060E0E9CF52FC02C04F
:10384000A39475CFA394A39472CF852D867809F4A1
:103850006ECFF6CFB70180E290E00E94201FA394C4
:10386000A414C0F3312C70CF342C3A18A41408F4EB
:103870006BCFF8CF852D867809F478CF8BE251FE97
:1038800080E257FC8DE2B70190E06ECFB70180E394
:1038900090E00E94201FBA9469CF8FEF9FEF96CFE0
:1038A000FC01CA01DB0120FD08C023FD05C022FF89
:1038B00002C0B383A283918380830895CF92DF9265
:1038C000EF92FF92CF93DF9300D000D0CDB7DEB759
:1038D0006B017C0183E044FD10C084E046FD0DC017
:1038E000D601F701AA0FBB1FEE1FFF1F1094D1F7DF
:1038F000CA0EDB1EEE1EFF1E81E0CC0CDD1CEE1C92
:10390000FF1C8150D1F7D701C601820F911DA11D67
:10391000B11DBC01CD010F900F900F900F90DF9162
:10392000CF91FF90EF90DF90CF9008950F931F936A
:10393000CF93DF938C01C8010E94041AEC0197FD1C
:1039400008C00E94F61E892BB1F7B801CE010E9473
:10395000501FCE01DF91CF911F910F910895B0E0DC
:10396000A0E0E5EBFCE10C947C208C01C62F5A0111
:10397000F22E0E94041AFC019927EB3221F08D9758
:1039800081F46894F7F8C15031F480E0CDB7DEB728
:10399000EAE00C949820C8010E94041AFC0197FDEB
:1039A000F4CFDF2DDD7F8F2D807309F5E033F9F43F
:1039B000EE24EA94EC0EC13091F0C8010E94041A82
:1039C000FC0197FD0CC08F7D883569F4D264C2502C
:1039D00031F0C8010E94041AFC0197FF08C0C12CF5
:1039E000D12C76011CC0F6FE2CC0D260CE2DC12C8D
:1039F000D12C760120ED2E0F283030F1D4FD09C0F6
:103A00002A3010F1D6FF05C02F7D8FEE820F863051
:103A1000D0F0B801CF010E94501FD1FFB6CFD7FF21
:103A200008C0F094E094D094C094C11CD11CE11C57
:103A3000F11C2D2FB701A601C5010E94501C81E089
:103A4000A5CFD261D3CF27504D2FC701B6010E9419
:103A50005E1C6B017C01D260C15009F3C8010E9459
:103A6000041AFC0197FFC6CFD8CFA0E2B0E0EBE389
:103A7000FDE10C947A206C01962E7A01CE0101961C
:103A80005C0180E2F50111928A95E9F7F6018380E5
:103A9000890150E040E0B0E020E0A0E061E070E0AB
:103AA000F80183FC959183FE9191892F8F019111EB
:103AB00007C010E000E0C801A096ECE00C9496204E
:103AC0009E3519F44115510531F1A4171506ECF492
:103AD0009D3549F19D32C9F4222309F1E82FE6957D
:103AE000E695E695EA0DFB2DF11D982F97709B0149
:103AF00001C0220F9A95EAF79081292B20838B171A
:103B000081F08B1730F48F5FE9CF2111E7CFB92F08
:103B1000E5CF8150E3CFA1E04F5F5F4FC1CF21E000
:103B2000FBCF20E0F9CF222319F08E8180628E83B3
:103B3000AA2361F0F5019E012F5D3F4F8081DF01D7
:103B4000319680958C93E217F307C1F7882483940C
:103B5000C6010E94041A97FD16C0E82FE695E69567
:103B6000E695EA0DFB2DF11D208130E0AC01477098
:103B7000552702C0359527954A95E2F720FD06C0E6
:103B8000B6010E94501F882059F093CFE114F10430
:103B900019F0F70181937F019A94812C9110D8CF6D
:103BA000E114F10409F487CFF701108284CFA6E075
:103BB000B0E0EDEDFDE10C9478205C016D837E8337
:103BC000742E652EDC0117961C921E921697C12C3E
:103BD000D5011396FC90ED81FE81F3FC8591F3FEF7
:103BE0008191182FFE83ED838823F9F090E00E94E5
:103BF000F61E892B21F0C5010E94961CE9CF1532D3
:103C000051F4ED81FE81F3FC1591F3FE1191FE83D9
:103C1000ED83153269F4C5010E94041A97FDA2C014
:103C20001817B1F2B5010E94501F8C2D90E09EC074
:103C300000E01A3249F4ED81FE81F3FC1591F3FEA8
:103C40001191FE83ED8301E0D12C20ED210F2A306C
:103C500060F101FF42C0DD2041F3183609F440C095
:103C60001C3609F449C0112301F3612F70E08CEA7E
:103C700090E00E94FF1E892BC1F2F12CE12C00FD87
:103C800006C0E72DF62DE190F1907E2E6F2E1E36A8
:103C900009F03CC0D50116964D915C9170E060E052
:103CA000202FC7010E94501C93CF02608D2D90E001
:103CB000B0E0A0E089839A83AB83BC8340E2BC017F
:103CC000CD010E945E1CD62EED81FE81F3FC159184
:103CD000F3FE1191FE83ED83B8CFDD24DA94BDCFDE
:103CE000ED81FE81F3FC1591F3FE1191FE83ED83CE
:103CF000183609F0B8CF08600460ED81FE81F3FC4E
:103D00001591F3FE1191FE83ED83ADCF1336B1F41F
:103D100001FD02C0DD24D394C5010E94041A97FD61
:103D200021C0E114F10419F0F70181937F01DA94C5
:103D3000D110F2CF00FD4CCFC3944ACF1B35D1F444
:103D40002D813E81A7016D2DC5010E94351D8D83FA
:103D50009E83ED81FE81EF2B69F7F50183818073EE
:103D600009F463CF8FEF9FEFC1105FCF2696EEE08F
:103D70000C949420C5010E94961C97FDF3CF1F362A
:103D800099F130F4143641F0193639F0006405C069
:103D90001337A9F01537D1F70062202FA7016D2D39
:103DA000C5010E94AF1C8111C5CFD7CFE114F1042A
:103DB00019F0F70181927F01DA94DD2071F0C501DD
:103DC0000E94041A4C0197FD08C00E94F61E892B20
:103DD00069F3B501C4010E94501FE114F10409F414
:103DE000A9CFD7011C92A6CF0061D7CF91110C9417
:103DF000EA1F803219F089508550C8F70895FC01F8
:103E00000590061621F00020D9F7C00108953197DA
:103E1000CF010895FC010590615070400110D8F762
:103E2000809590958E0F9F1F0895FC016150704002
:103E300001900110D8F7809590958E0F9F1F0895DF
:103E40000F931F93CF93DF93182F092FEB018B81D3
:103E500081FD09C01FEF0FEF812F902FDF91CF91D0
:103E60001F910F91089582FF14C02E813F818C8194
:103E70009D81281739073CF4E881F981CF0101962B
:103E80009983888310838E819F8101969F838E837F
:103E9000E3CFE885F985812F0995892BA1F3DACF46
:103EA000FB01238120FF11C026FD0FC08F3F980723
:103EB00071F082832F7D20642383268137812150F6
:103EC000310937832683992708958FEF9FEF08954F
:103ED000FA01AA27283051F1203181F1E8946F933B
:103EE0006E7F6E5F7F4F8F4F9F4FAF4FB1E03ED0E1
:103EF000B4E03CD0670F781F891F9A1FA11D680F7F
:103F0000791F8A1F911DA11D6A0F711D811D911DB1
:103F1000A11D20D009F468943F912AE0269F112426
:103F20003019305D3193DEF6CF010895462F47708A
:103F3000405D4193B3E00FD0C9F7F6CF462F4F70E5
:103F4000405D4A3318F0495D31FD4052419302D043
:103F5000A9F7EACFB4E0A6959795879577956795E9
:103F6000BA95C9F700976105710508959B01AC01E9
:103F70000A2E06945795479537952795BA95C9F710
:103F8000620F731F841F951FA01D0895990F0008CD
:103F9000550FAA0BE0E8FEEF16161706E807F9071B
:103FA000C0F012161306E407F50798F0621B730BB6
:103FB000840B950B39F40A2661F0232B242B252B37
:103FC00021F408950A2609F4A140A6958FEF811DDA
:103FD000811D089599278827089597F99F6780E89C
:103FE00070E060E008959FEF80EC089500240A944B
:103FF0001616170618060906089500240A941216C4
:104000001306140605060895092E0394000C11F4F6
:10401000882352F0BB0F40F4BF2B11F460FF04C0A3
:104020006F5F7F4F8F4F9F4F089557FD9058440FFC
:10403000551F59F05F3F71F04795880F97FB991F07
:1040400061F09F3F79F087950895121613061406C4
:10405000551FF2CF4695F1DF08C016161706180651
:10406000991FF1CF86957105610508940895E8942C
:10407000BB2766277727CB0197F90895F999FECFDB
:1040800092BD81BDF89A992780B50895A8E1B0E066
:1040900042E050E00C946620262FF999FECF92BDA5
:1040A00081BDF89A019700B4021639F01FBA20BDFD
:1040B0000FB6F894FA9AF99A0FBE08950196272F31
:1040C0000E944D200C944C20DC01CB01FC01F9999D
:1040D000FECF06C0F2BDE1BDF89A319600B40D9254
:1040E00041505040B8F708952F923F924F925F92FF
:1040F0006F927F928F929F92AF92BF92CF92DF92F8
:10410000EF92FF920F931F93CF93DF93CDB7DEB75C
:10411000CA1BDB0B0FB6F894DEBF0FBECDBF0994F0
:104120002A88398848885F846E847D848C849B8447
:10413000AA84B984C884DF80EE80FD800C811B8155
:10414000AA81B981CE0FD11D0FB6F894DEBF0FBE84
:10415000CDBFED0108955058BB27AA270E94C32068
:104160000C9404200E94F61F38F00E94FD1F20F0DE
:1041700039F49F3F19F426F40C94F31F0EF4E095E4
:10418000E7FB0C94ED1FE92F0E94152058F3BA1796
:10419000620773078407950720F079F4A6F50C945D
:1041A00037200EF4E0950B2EBA2FA02D0B01B9018C
:1041B00090010C01CA01A0011124FF27591B99F09D
:1041C000593F50F4503E68F11A16F040A22F232FA9
:1041D000342F4427585FF3CF469537952795A795F9
:1041E000F0405395C9F77EF41F16BA0B620B730BA0
:1041F000840BBAF09150A1F0FF0FBB1F661F771F11
:10420000881FC2F70EC0BA0F621F731F841F48F4C5
:10421000879577956795B795F7959E3F08F0B0CF4E
:104220009395880F08F09927EE0F97958795089535
:0E4230000E94C61F08F48FEF0895F894FFCF88
:10423E0001010101FFFFFFFF00E10000000000008F
:10424E00040204020402040204021E232F0023238C
:10425E002D00010A16000107160001231E0000C1E1
:10426E008081000000000000006202DB010502A94F
:10427E0002360214022802000000003E04B003675A
:0A428E00045C04B1046B048D04000D
:00000001FF
